:1000000012C017C016C015C014C013C012C011C052
:1000100010C00FC00EC00DC00CC00BC00AC009C07C
:1000200008C007C006C011241FBECFEDCDBF0FD042
:1000300028C0E6CFE199FECF8EBB6DBBE29AE19A74
:100040000895E199FECF8EBBE09A8DB3089581E0CB
:1000500088BB61E070E08CE090E0ECDF8CE090E049
:10006000F0DF813011F488BB02C081E088BB2FEF44
:100070008FEB91E2215080409040E1F700C00000FA
:06008000F6CFF894FFCF5B
:00000001FF
