:1000000012C02AC029C028C027C026C025C024C0CD
:1000100023C022C021C020C01FC01EC01DC01CC0E4
:100020001BC01AC019C011241FBECFEDCDBF10E0F8
:10003000A0E6B0E0E2E1F1E002C005900D92A23648
:10004000B107D9F720E0A2E6B0E001C01D92A836C2
:10005000B207E1F707D05BC0D3CF83E087BB8C98B2
:10006000949A0895FADF21E030E041E0849B24C0B7
:100070008091640090916500019690936500809353
:100080006400853F914064F1809166009091670023
:10009000892B69F4809160009091610001969093A2
:1000A0006100809360003093670020936600109297
:1000B00065001092640014C080916200909163000A
:1000C00001969093630080936200853F914044F0D5
:1000D0001092670010926600109263001092620006
:1000E0008091600090916100049779F448BB8FEF94
:1000F0009FED50E1815090405040E1F700C000007A
:100100001092610010926000B1CF18BAAFCFF8948E
:02011000FFCF1F
:02011200FFFFED
:00000001FF
