:1000000012C017C016C015C014C013C012C011C052
:1000100010C00FC00EC00DC00CC00BC00AC009C07C
:1000200008C007C006C011241FBECFEDCDBF07D04A
:100030002BC0E6CF84E087BB8C98949A0895FADFB2
:1000400080E090E024E0849B0AC001963FEF4FE7F8
:100050005DE0315040405040E1F700C00000853085
:10006000910511F428BB06C08730910511F428BB17
:1000700001C018BA3FEF4FE553E0315040405040C7
:0C008000E1F700C00000DFCFF894FFCFD4
:00000001FF
