S01100006669727374546573742E737265634B
S113000012C017C016C015C014C013C012C011C04E
S113001010C00FC00EC00DC00CC00BC00AC009C078
S113002008C007C006C011241FBECFEDCDBF02D04B
S113003047C0E6CF88E087BB81E88FBD80E190E0D0
S11300409BBD8ABD82E08EBD40E02FEF30E050E0E2
S11300500EC0842F90E09BBD8ABD6FEF7FEA81E0E4
S1130060615070408040E1F700C000004F5F4F3F97
S113007081F79FEF4FEB61E2915040406040E1F720
S113008000C000003BBD2ABDC9019BBD8ABD7FEFF6
S11300904FEA61E0715040406040E1F700C0000069
S11300A00197009791F71BBC1ABC7FEF8FEB98EA7E
S11300B0715080409040E1F700C00000452FD7CF39
S10700C0F894FFCFDE
S9030000FC
