:1000000012C01FC01EC01DC01CC01BC01AC019C01A
:1000100018C017C016C015C014C013C012C011C03C
:1000200010C00FC00EC011241FBECFEDCDBF20E009
:10003000A0E6B0E001C01D92A036B207E1F702D001
:1000400020C0DECF82E390E009D08FEF9FEF99BD13
:1000500088BD1CBE16BE9BBD8ABDF9CF87B38C611F
:1000600087BB8D9A83EA80BF83E083BF99EA9FBDF7
:100070008EBD12BE16BE1CBE1BBC1ABC19BC18BC61
:060080000895F894FFCF83
:00000001FF
