:1000000012C017C017C015C014C013C012C011C051
:1000100010C00FC00EC00DC00CC00BC00AC009C07C
:1000200008C007C006C011241FBECFEDCDBF3BD016
:1000300059C0E6CF1F920F920FB60F9211242F9343
:100040003F934F935F938F939F932FEF3FE543E051
:10005000215030404040E1F700C0000028B385E067
:100060009FEF18BA5FEF3FED40E151503040404004
:10007000E1F700C0000098BB5FEF3FED40E1515059
:1000800030404040E1F700C00000815051F728BBEC
:100090009F918F915F914F913F912F910F900FBE44
:1000A0000F901F90189580E181BB82BB8FEF87BBBB
:1000B00081E088BB80E88BBF83E085BF789491E0C6
:1000C00088B3883011F498BB03C088B3880F88BB0D
:1000D0002FEF3FED80E1215030408040E1F700C03C
:0800E0000000EECFF894FFCF01
:00000001FF
