S01100006669727374546573742E737265634B
S113000012C01FC01EC01DC01CC01BC01AC019C016
S113001018C017C016C015C014C013C012C011C038
S113002010C00FC00EC011241FBECFEDCDBF20E005
S1130030A0E6B0E001C01D92A036B207E1F702D0FD
S11300401FC0DECF82E390E008D08FEF1BBC1ABC48
S113005086BF19BC18BC8CBFF9CF87B38C6187BB32
S11300608D9A83EA80BF83E083BF99EA9FBD8EBDEA
S113007012BE16BE1CBE1BBC1ABC19BC18BC08950B
S1070080F894FFCF1E
S9030000FC
